{
  "contractName": "Market",
  "abi": [
    {
      "constant": true,
      "inputs": [
        {
          "name": "",
          "type": "uint256"
        }
      ],
      "name": "articles",
      "outputs": [
        {
          "name": "id",
          "type": "uint256"
        },
        {
          "name": "seller",
          "type": "address"
        },
        {
          "name": "buyer",
          "type": "address"
        },
        {
          "name": "name",
          "type": "string"
        },
        {
          "name": "description",
          "type": "string"
        },
        {
          "name": "price",
          "type": "uint256"
        },
        {
          "name": "hashvalue",
          "type": "string"
        }
      ],
      "payable": false,
      "stateMutability": "view",
      "type": "function",
      "signature": "0xedcfafe6"
    },
    {
      "anonymous": false,
      "inputs": [
        {
          "indexed": true,
          "name": "_id",
          "type": "uint256"
        },
        {
          "indexed": true,
          "name": "_seller",
          "type": "address"
        },
        {
          "indexed": false,
          "name": "_name",
          "type": "string"
        },
        {
          "indexed": false,
          "name": "_price",
          "type": "uint256"
        },
        {
          "indexed": false,
          "name": "_hashvalue",
          "type": "string"
        }
      ],
      "name": "LogSellArticle",
      "type": "event",
      "signature": "0x206070082265f4d4b715dfdd05d37550f862b39529d556b2a405eb3216905d44"
    },
    {
      "anonymous": false,
      "inputs": [
        {
          "indexed": true,
          "name": "_id",
          "type": "uint256"
        },
        {
          "indexed": true,
          "name": "_seller",
          "type": "address"
        },
        {
          "indexed": true,
          "name": "_buyer",
          "type": "address"
        },
        {
          "indexed": false,
          "name": "_name",
          "type": "string"
        },
        {
          "indexed": false,
          "name": "_price",
          "type": "uint256"
        },
        {
          "indexed": false,
          "name": "_hashvalue",
          "type": "string"
        }
      ],
      "name": "LogBuyArticle",
      "type": "event",
      "signature": "0xfa19c2968e276aba810006481285a4b80fdb4047c1e4e7943107c5f29c024d43"
    },
    {
      "constant": false,
      "inputs": [],
      "name": "kill",
      "outputs": [],
      "payable": false,
      "stateMutability": "nonpayable",
      "type": "function",
      "signature": "0x41c0e1b5"
    },
    {
      "constant": false,
      "inputs": [
        {
          "name": "_name",
          "type": "string"
        },
        {
          "name": "_description",
          "type": "string"
        },
        {
          "name": "_price",
          "type": "uint256"
        },
        {
          "name": "_hashvalue",
          "type": "string"
        }
      ],
      "name": "sellArticle",
      "outputs": [],
      "payable": false,
      "stateMutability": "nonpayable",
      "type": "function",
      "signature": "0x9d5d3c35"
    },
    {
      "constant": false,
      "inputs": [
        {
          "name": "_id",
          "type": "uint256"
        }
      ],
      "name": "buyArticle",
      "outputs": [],
      "payable": true,
      "stateMutability": "payable",
      "type": "function",
      "signature": "0x1cc4baa8"
    },
    {
      "constant": true,
      "inputs": [],
      "name": "getNumberOfArticles",
      "outputs": [
        {
          "name": "",
          "type": "uint256"
        }
      ],
      "payable": false,
      "stateMutability": "view",
      "type": "function",
      "signature": "0x89da85d3"
    },
    {
      "constant": true,
      "inputs": [],
      "name": "getArticlesForSale",
      "outputs": [
        {
          "name": "",
          "type": "uint256[]"
        }
      ],
      "payable": false,
      "stateMutability": "view",
      "type": "function",
      "signature": "0x7f6be3da"
    }
  ],
  "bytecode": "0x608060405260008054600160a060020a03191633179055610f87806100256000396000f3fe6080604052600436106100775763ffffffff7c01000000000000000000000000000000000000000000000000000000006000350416631cc4baa8811461007c57806341c0e1b51461009b5780637f6be3da146100b057806389da85d3146101155780639d5d3c351461013c578063edcfafe614610305575b600080fd5b6100996004803603602081101561009257600080fd5b50356104b3565b005b3480156100a757600080fd5b506100996108fd565b3480156100bc57600080fd5b506100c5610993565b60408051602080825283518183015283519192839290830191858101910280838360005b838110156101015781810151838201526020016100e9565b505050509050019250505060405180910390f35b34801561012157600080fd5b5061012a610ac7565b60408051918252519081900360200190f35b34801561014857600080fd5b506100996004803603608081101561015f57600080fd5b81019060208101813564010000000081111561017a57600080fd5b82018360208201111561018c57600080fd5b803590602001918460018302840111640100000000831117156101ae57600080fd5b91908080601f016020809104026020016040519081016040528093929190818152602001838380828437600092019190915250929594936020810193503591505064010000000081111561020157600080fd5b82018360208201111561021357600080fd5b8035906020019184600183028401116401000000008311171561023557600080fd5b91908080601f0160208091040260200160405190810160405280939291908181526020018383808284376000920191909152509295843595909490935060408101925060200135905064010000000081111561029057600080fd5b8201836020820111156102a257600080fd5b803590602001918460018302840111640100000000831117156102c457600080fd5b91908080601f016020809104026020016040519081016040528093929190818152602001838380828437600092019190915250929550610acd945050505050565b34801561031157600080fd5b5061032f6004803603602081101561032857600080fd5b5035610cdd565b6040518088815260200187600160a060020a0316600160a060020a0316815260200186600160a060020a0316600160a060020a03168152602001806020018060200185815260200180602001848103845288818151815260200191508051906020019080838360005b838110156103b0578181015183820152602001610398565b50505050905090810190601f1680156103dd5780820380516001836020036101000a031916815260200191505b50848103835287518152875160209182019189019080838360005b838110156104105781810151838201526020016103f8565b50505050905090810190601f16801561043d5780820380516001836020036101000a031916815260200191505b50848103825285518152855160209182019187019080838360005b83811015610470578181015183820152602001610458565b50505050905090810190601f16801561049d5780820380516001836020036101000a031916815260200191505b509a505050505050505050505060405180910390f35b600254600010610532576040805160e560020a62461bcd028152602060048201526024808201527f54686572652073686f756c64206265206174206c65617374206f6e652061727460448201527f69636c6500000000000000000000000000000000000000000000000000000000606482015290519081900360840190fd5b60008111801561054457506002548111155b15156105c0576040805160e560020a62461bcd02815260206004820152602360248201527f41727469636c652077697468207468697320696420646f6573206e6f7420657860448201527f6973740000000000000000000000000000000000000000000000000000000000606482015290519081900360840190fd5b60008181526001602052604090206002810154600160a060020a031615610631576040805160e560020a62461bcd02815260206004820152601860248201527f41727469636c652077617320616c726561647920736f6c640000000000000000604482015290519081900360640190fd5b6001810154600160a060020a03163314156106bc576040805160e560020a62461bcd02815260206004820152602160248201527f53656c6c65722063616e6e6f742062757920686973206f776e2061727469636c60448201527f6500000000000000000000000000000000000000000000000000000000000000606482015290519081900360840190fd5b6005810154341461073d576040805160e560020a62461bcd02815260206004820152602e60248201527f56616c75652070726f766964656420646f6573206e6f74206d6174636820707260448201527f696365206f662061727469636c65000000000000000000000000000000000000606482015290519081900360840190fd5b60028101805473ffffffffffffffffffffffffffffffffffffffff1916331790556001810154604051600160a060020a0391909116903480156108fc02916000818181858888f1935050505015801561079a573d6000803e3d6000fd5b5060028181015460018084015460058501546040805160208101839052606080825260038901805461010097811615979097026000190190961697909704968101879052600160a060020a0395861696959093169488947ffa19c2968e276aba810006481285a4b80fdb4047c1e4e7943107c5f29c024d439490939260068a019282918201906080830190879080156108745780601f1061084957610100808354040283529160200191610874565b820191906000526020600020905b81548152906001019060200180831161085757829003601f168201915b50508381038252845460026000196101006001841615020190911604808252602090910190859080156108e85780601f106108bd576101008083540402835291602001916108e8565b820191906000526020600020905b8154815290600101906020018083116108cb57829003601f168201915b50509550505050505060405180910390a45050565b600054600160a060020a03163314610985576040805160e560020a62461bcd02815260206004820152603660248201527f546869732066756e6374696f6e2063616e206f6e6c792062652063616c6c656460448201527f2062792074686520636f6e7472616374206f776e657200000000000000000000606482015290519081900360840190fd5b600054600160a060020a0316ff5b6060600254600014156109b55750604080516000815260208101909152610ac4565b60606002546040519080825280602002602001820160405280156109e3578160200160208202803883390190505b509050600060015b6002548111610a4b57600081815260016020526040902060020154600160a060020a03161515610a43576000818152600160205260409020548351849084908110610a3257fe5b602090810290910101526001909101905b6001016109eb565b50606081604051908082528060200260200182016040528015610a78578160200160208202803883390190505b50905060005b82811015610abe578381815181101515610a9457fe5b906020019060200201518282815181101515610aac57fe5b60209081029091010152600101610a7e565b50925050505b90565b60025490565b6002805460019081018083556040805160e0810182528281523360208083019182526000838501818152606085018d8152608086018d905260a086018c905260c086018b90529682528783529490208351815591519582018054600160a060020a0397881673ffffffffffffffffffffffffffffffffffffffff19918216179091559351968201805497909616969093169590951790935590518051929392610b7c9260038501920190610ec3565b5060808201518051610b98916004840191602090910190610ec3565b5060a0820151600582015560c08201518051610bbe916006840191602090910190610ec3565b5090505033600160a060020a03166002547f206070082265f4d4b715dfdd05d37550f862b39529d556b2a405eb3216905d44868585604051808060200184815260200180602001838103835286818151815260200191508051906020019080838360005b83811015610c3a578181015183820152602001610c22565b50505050905090810190601f168015610c675780820380516001836020036101000a031916815260200191505b50838103825284518152845160209182019186019080838360005b83811015610c9a578181015183820152602001610c82565b50505050905090810190601f168015610cc75780820380516001836020036101000a031916815260200191505b509550505050505060405180910390a350505050565b60016020818152600092835260409283902080548184015460028084015460038501805489516101009982161599909902600019011692909204601f81018790048702880187019098528787529296600160a060020a0392831696929093169491929091830182828015610d925780601f10610d6757610100808354040283529160200191610d92565b820191906000526020600020905b815481529060010190602001808311610d7557829003601f168201915b5050505060048301805460408051602060026001851615610100026000190190941693909304601f8101849004840282018401909252818152949594935090830182828015610e225780601f10610df757610100808354040283529160200191610e22565b820191906000526020600020905b815481529060010190602001808311610e0557829003601f168201915b50505050600583015460068401805460408051602060026001851615610100026000190190941693909304601f81018490048402820184019092528181529596939593945090830182828015610eb95780601f10610e8e57610100808354040283529160200191610eb9565b820191906000526020600020905b815481529060010190602001808311610e9c57829003601f168201915b5050505050905087565b828054600181600116156101000203166002900490600052602060002090601f016020900481019282601f10610f0457805160ff1916838001178555610f31565b82800160010185558215610f31579182015b82811115610f31578251825591602001919060010190610f16565b50610f3d929150610f41565b5090565b610ac491905b80821115610f3d5760008155600101610f4756fea165627a7a723058205d1ddfc884b5f9ebd353353bb08db59e54daec1b55643ec1a08590c4e7a866eb0029",
  "source": "pragma solidity >0.4.99 <0.7.0;\n\nimport \"./Ownable.sol\";\n\ncontract Market is Ownable {\n    // Custom types\n    struct Article {\n        uint id;\n        address payable seller;\n        address buyer;\n        string name;\n        string description;\n        uint256 price;\n        string hashvalue;\n    }\n\n    // State variables\n    mapping(uint => Article) public articles;\n    uint articleCounter;\n    address seller;\n    address buyer;\n    string name;\n    string description;\n    uint256 price;\n    string hashvalue;\n\n    // Events\n    event LogSellArticle (\n        uint indexed _id,\n        address indexed _seller,\n        string _name,\n        uint256 _price,\n        string _hashvalue);\n\n    event LogBuyArticle (\n        uint indexed _id,\n        address indexed _seller,\n        address indexed _buyer,\n        string _name,\n        uint256 _price,\n        string _hashvalue);\n\n\n\n    // kill the smart contract\n    function kill() public onlyOwner {\n        selfdestruct(owner);\n    }\n\n    // sell an article\n    function sellArticle(string memory _name, string memory _description, uint256 _price, string memory _hashvalue) public {\n        // a new article\n        articleCounter++;\n\n        // store this article\n        articles[articleCounter] = Article(\n            articleCounter,\n            msg.sender,\n            address(0),\n            _name,\n            _description,\n            _price,\n            _hashvalue\n        );\n\n\n        // trigger the event\n        emit LogSellArticle(articleCounter, msg.sender, _name, _price, _hashvalue);\n    }\n\n    // buy an article\n    function buyArticle(uint _id) public payable {\n\n        // we check whether there is at least one article\n        require(articleCounter > 0, \"There should be at least one article\");\n\n        // we check whether the article exists\n        require(_id > 0 && _id <= articleCounter, \"Article with this id does not exist\");\n\n        // we retrieve the article\n        Article storage article = articles[_id];\n\n        // we check whether the article has not already been sold\n        require(article.buyer == address(0), \"Article was already sold\");\n\n        // we don't allow the seller to buy his/her own article\n        require(article.seller != msg.sender, \"Seller cannot buy his own article\");\n\n        // we check whether the value sent corresponds to the article price\n        require(article.price == msg.value, \"Value provided does not match price of article\");\n\n        // keep buyer's information\n        article.buyer = msg.sender;\n\n        // the buyer can buy the article\n        article.seller.transfer(msg.value);\n\n\n\n       // emit GiveHash()\n        // trigger the event\n        emit LogBuyArticle(_id, article.seller, article.buyer, article.name, article.price, article.hashvalue);\n\n    }\n\n    // fetch the number of articles in the contract\n\n\n    function getNumberOfArticles() public view returns (uint) {\n        return articleCounter;\n    }\n\n    // fetch and returns all article IDs available for sale\n    function getArticlesForSale() public view returns (uint[]memory) {\n        // we check whether there is at least one article\n        if(articleCounter == 0) {\n            return new uint[](0);\n        }\n\n        // prepare output arrays\n        uint[] memory articleIds = new uint[](articleCounter);\n\n        uint numberOfArticlesForSale = 0;\n        // iterate over articles\n        for (uint i = 1; i <= articleCounter; i++) {\n            // keep only the ID for the article not already sold\n            if (articles[i].buyer == address(0)) {\n                articleIds[numberOfArticlesForSale] = articles[i].id;\n                numberOfArticlesForSale++;\n            }\n        }\n\n        // copy the articleIds array into the smaller forSale array\n        uint[] memory forSale = new uint[](numberOfArticlesForSale);\n        for (uint j = 0; j < numberOfArticlesForSale; j++) {\n            forSale[j] = articleIds[j];\n        }\n        return forSale;\n    }\n}\n",
  "sourcePath": "/home/sensorweb1/market/contracts/Market.sol",
  "compiler": {
    "name": "solc",
    "version": "0.5.0+commit.1d4f565a.Emscripten.clang"
  },
  "schemaVersion": "3.0.2",
  "updatedAt": "2020-04-06T19:19:50.000Z",
  "devdoc": {
    "methods": {}
  },
  "userdoc": {
    "methods": {}
  }
}